:100000000C945D000C9485000C9485000C94850084
:100010000C9485000C9485000C9485000C9485004C
:100020000C9485000C9485000C9485000C94CE03F0
:100030000C9485000C9485000C9485000C9485002C
:100040000C942C030C9485000C949C030C94760364
:100050000C9485000C9485000C9485000C9485000C
:100060000C9485000C9485000000000024002700FB
:100070002A0000000000250028002B0004040404CE
:100080000404040402020202020203030303030342
:10009000010204081020408001020408102001021F
:1000A00004081020000000080002010000030407FB
:1000B0000000000000000000A50411241FBECFEFC7
:1000C000D8E0DEBFCDBF11E0A0E0B1E0E4E8FFE0A2
:1000D00002C005900D92AA31B107D9F722E0AAE13A
:1000E000B1E001C01D92A430B207E1F710E0CDE508
:1000F000D0E004C02197FE010E94BA07CC35D10799
:10010000C9F70E94DD040C94C0070C94000090E035
:10011000FC01EC55FF4F2491FC01E057FF4F349157
:10012000FC01E458FF4FE491EE23C9F0222339F09B
:10013000233001F1A8F4213019F1223029F1F0E047
:10014000EE0FFF1FEE58FF4FA591B4918FB7F894B3
:10015000EC91611126C030953E233C938FBF0895EA
:100160002730A9F02830C9F0243049F78091800069
:100170008F7D03C0809180008F7780938000DFCFD8
:1001800084B58F7784BDDBCF84B58F7DFBCF809125
:10019000B0008F778093B000D2CF8091B0008F7D78
:1001A000F9CF3E2BDACFCF93DF9390E0FC01E057FD
:1001B000FF4F249184589F4FFC0184918823D1F0F4
:1001C00090E0880F991FFC01E859FF4FA591B49169
:1001D000FC01EE58FF4FC591D49161110EC09FB73D
:1001E000F8948C91E22FE0958E238C932881E22362
:1001F000E8839FBFDF91CF9108958FB7F894EC917A
:10020000E22BEC938FBFF6CF8E50806480937C00FE
:1002100080917A00806480937A0080917A0086FDD4
:10022000FCCF809178009091790008953FB7F894C1
:100230008091580190915901A0915A01B0915B01B0
:1002400026B5A89B05C02F3F19F00196A11DB11D31
:100250003FBFBA2FA92F982F8827BC01CD01620F6D
:10026000711D811D911D42E0660F771F881F991F28
:100270004A95D1F70895AF92BF92CF92DF92EF9255
:10028000FF920F931F93CF93DF936C017B018B0140
:10029000040F151FEB015E01AE18BF08C017D10790
:1002A00059F06991D601ED91FC910190F081E02D1A
:1002B000C6010995892B79F7C501DF91CF911F916F
:1002C0000F91FF90EF90DF90CF90BF90AF90089587
:1002D000FC01538D448D252F30E0842F90E0821B4C
:1002E000930B541710F0CF96089501970895FC01D1
:1002F000918D828D981761F0A28DAE0FBF2FB11D29
:100300005D968C91928D9F5F9F73928F90E0089580
:100310008FEF9FEF0895FC01918D828D981731F03A
:10032000828DE80FF11D858D90E008958FEF9FEF8E
:100330000895FC01918D228D892F90E0805C9F4F64
:10034000821B91098F73992708958CE591E00E9493
:10035000990121E0892B09F420E0822F089580E0A3
:1003600090E0892B29F00E94A50181110C940000D6
:100370000895FC01A48DA80FB92FB11DA35ABF4F3A
:100380002C91848D90E001968F739927848FA68994
:10039000B7892C93A089B1898C91837080648C93E8
:1003A000938D848D981306C00288F389E02D808197
:1003B0008F7D80830895EF92FF920F931F93CF93C9
:1003C000DF93EC0181E0888F9B8D8C8D98131AC090
:1003D000E889F989808185FF15C09FB7F894EE8977
:1003E000FF896083E889F9898081837080648083D4
:1003F0009FBF81E090E0DF91CF911F910F91FF901F
:10040000EF900895F62E0B8D10E00F5F1F4F0F73C6
:100410001127E02E8C8D8E110CC00FB607FCFACF81
:10042000E889F989808185FFF5CFCE010E94B90165
:10043000F1CFEB8DEC0FFD2FF11DE35AFF4FF08252
:100440009FB7F8940B8FEA89FB8980818062CFCFB8
:10045000CF93DF93EC01888D8823B9F0AA89BB89FB
:10046000E889F9898C9185FD03C0808186FD0DC0E6
:100470000FB607FCF7CF8C9185FFF2CF808185FF07
:10048000EDCFCE010E94B901E9CFDF91CF91089560
:10049000DC01EC91EC3090F511968C91119728E8E5
:1004A00030E0281B310987FD3395220F331F220FBF
:1004B000331F6217730784F012968C9128E532E09F
:1004C000281B310987FD3395220F331F220F331F5D
:1004D000621773070CF49B0122503109220F331F5E
:1004E0004FB7F8948E2F90E0FC01EE0FFF1FE80F3E
:1004F000F91FE45EFE4F328321834FBF08951F939F
:10050000CF93DF93EC01162F88818C3008F04EC01A
:1005100061E0812F0E94D3008881282F30E0F9010B
:10052000EE0FFF1FE20FF31FE45EFE4F1F736081AB
:10053000607C612B608319821A822CE0622F0E94FA
:10054000AE07829FB001112430E020E0AB01420FE2
:10055000531FFA01EE0FFF1FE40FF51FE45EFE4F7D
:10056000908196FD16C02F5F3F4F2C30310571F7FB
:1005700081110FC01092800082E080938100109260
:10058000850010928400B19A80916F008260809300
:100590006F00E8818E2F90E0FC01EE0FFF1FE80F47
:1005A000F91FE45EFE4F8081806480838881DF9143
:1005B000CF911F910895FC0101900020E9F7319738
:1005C000AF01481B590BBC018CE591E00C943B0139
:1005D0008F929F92AF92BF920F931F93CF93DF930F
:1005E000CDB7DEB7A1970FB6F894DEBF0FBECDBF73
:1005F00019A2423008F44AE08E010F5D1F4F842E8D
:10060000912CB12CA12CA50194010E947D07E62F0D
:10061000B901CA01EA30F4F4E05DD801EE938D012E
:10062000232B242B252B79F790E080E0109719F0ED
:10063000CD010E94DB02A1960FB6F894DEBF0FBE7B
:10064000CDBFDF91CF911F910F91BF90AF909F9041
:100650008F900895E95CE1CF1F920F920FB60F9231
:1006600011242F933F938F939F93AF93BF938091C8
:10067000540190915501A0915601B09157013091CC
:10068000530123E0230F2D3758F50196A11DB11D0D
:10069000209353018093540190935501A0935601E8
:1006A000B09357018091580190915901A0915A013E
:1006B000B0915B010196A11DB11D809358019093EB
:1006C0005901A0935A01B0935B01BF91AF919F91E3
:1006D0008F913F912F910F900FBE0F901F90189503
:1006E00026E8230F0296A11DB11DD2CF1F920F92B3
:1006F0000FB60F9211242F933F934F935F936F93F5
:100700007F938F939F93AF93BF93EF93FF938CE56A
:1007100091E00E94B901FF91EF91BF91AF919F913C
:100720008F917F916F915F914F913F912F910F909A
:100730000FBE0F901F9018951F920F920FB60F9239
:1007400011242F938F939F93EF93FF93E0916C016C
:10075000F0916D018081E0917201F091730182FD51
:100760001BC09081809175018F5F8F7320917601FE
:10077000821741F0E0917501F0E0E45AFE4F958F49
:1007800080937501FF91EF919F918F912F910F9021
:100790000FBE0F901F9018958081F4CF1F920F927B
:1007A0000FB60F9211242F933F934F935F936F9344
:1007B0007F938F939F93AF93BF93CF93DF93EF93E9
:1007C000FF9380911A01C0911B01D0E087FF24C0E4
:1007D000109285001092840080911A018F5F80939F
:1007E0001A0180911A01082E000C990B8C179D0795
:1007F00024F480911A018C30C4F18091840090918E
:100800008500049680349C4908F47AC08091840065
:1008100090918500049676C080911A01082E000CF4
:10082000990B8C179D07C4F6E0911A018E2FEE0FDD
:10083000990BFC01EE0FFF1FE80FF91FE45EFE4F5E
:10084000808186FFC9CFE0911A018E2FEE0F990BA0
:10085000FC01EE0FFF1FE80FF91FE45EFE4F8081E1
:1008600060E08F730E948700B7CF209184003091A1
:100870008500E0911A018E2FEE0F990BFC01EE0F0F
:10088000FF1FE80FF91FE45EFE4F81819281820F06
:10089000931F9093890080938800E0911A018E2F16
:1008A000EE0F990BFC01EE0FFF1FE80FF91FE45E3E
:1008B000FE4F808186FF11C0E0911A018E2FEE0F4E
:1008C000990BFC01EE0FFF1FE80FF91FE45EFE4FCE
:1008D000808161E08F730E948700FF91EF91DF912B
:1008E000CF91BF91AF919F918F917F916F915F91C8
:1008F0004F913F912F910F900FBE0F901F90189521
:1009000080E49CE990938900809388008FEF809326
:100910001A01E3CFFC0190911B019C3098F481E017
:10092000890F80931B019083892F90E0FC01EE0FCB
:10093000FF1FE80FF91FE45EFE4F88EB9BE09283F8
:10094000818308958FEF80830895ECE5F1E01382B1
:10095000128288EE93E0A0E0B0E084839583A683C2
:10096000B78384E091E09183808385EC90E0958764
:10097000848784EC90E09787868780EC90E0918B69
:10098000808B81EC90E0938B828B82EC90E0958B56
:10099000848B86EC90E0978B868B118E128E138E53
:1009A000148E8FEF91E00E948A048CEF91E00E94F8
:1009B0008A0489EF91E00C948A04789484B582606B
:1009C00084BD84B5816084BD85B5826085BD85B5F3
:1009D000816085BD80916E00816080936E00109271
:1009E00081008091810082608093810080918100EC
:1009F000816080938100809180008160809380007D
:100A00008091B10084608093B1008091B0008160DA
:100A10008093B00080917A00846080937A00809106
:100A20007A00826080937A0080917A00816080935E
:100A30007A0080917A00806880937A001092C100D9
:100A400010925201109251011092500110924F01D8
:100A500010924E0110924D0161E08AE00E94D30095
:100A600061E089E00E94D30060E08EE00E94D30044
:100A700060E081E10E94D30069E070E08CEF91E0DA
:100A80000E947F026AE070E089EF91E00E947F029D
:100A900063E070E08FEF91E00E947F02E0916C01D3
:100AA000F0916D0182E08083E0916801F09169012D
:100AB0001082E0916A01F0916B0180E180831092D5
:100AC0007401E0917001F091710186E08083E09102
:100AD0006E01F0916F01808180618083E0916E01F1
:100AE000F0916F01808188608083E0916E01F091C8
:100AF0006F01808180688083E0916E01F0916F01C9
:100B000080818F7D808364EB862E912CA12CB12C6B
:100B100070E0272E70E0372E8CE591E00E9499015D
:100B2000181619060CF072C000E411E0D0E0C0E025
:100B30002FB7F8948091540190915501A0915601DE
:100B4000B09157012FBF8093640190936501A093EA
:100B50006601B09367018CE591E00E94770197FFF1
:100B60003FC12FB7F8948091540190915501A09105
:100B70005601B09157012FBF40916401509165011A
:100B80006091660170916701841B950BA60BB70BF2
:100B90004091600150916101609162017091630127
:100BA00084179507A607B707B0F2C05CDE4F18821E
:100BB00062E171E080E491E00E941707D0E0C0E0BC
:100BC000009721F1209771F40E94F9069093520149
:100BD00080935101219662E171E090E080E00E94F3
:100BE0001707EECFC130D10539F40E94F906909372
:100BF000500180934F01EECFC230D10559F70E94CA
:100C0000F90690934E0180934D01E4CF81E10E945B
:100C100004012C018EE00E940401EC0184E191E0CA
:100C20000E94DB02052C000C660877084AE0C3012D
:100C3000B20177FE0DC06DE28CE591E00E94DB0110
:100C400066277727CB0164197509860997094AE059
:100C50000E94E80282E191E00E94DB022E01DD0F9A
:100C6000660877084AE0C301B20177FE0DC06DE265
:100C70008CE591E00E94DB0166277727CB016419A0
:100C80007509860997094AE00E94E80286E191E029
:100C90000E94DB026091510170915201603222E0AA
:100CA0007207D4F58091000238E8432E512C481A7F
:100CB000510887FD5394440C551C440C551C052CBD
:100CC000000C660877088091010228E532E0281BB5
:100CD000310987FD3395220F331F220F331F032E57
:100CE000000C440B550B2419350946095709DB0143
:100CF000653B710514F0A4EBB0E0B7FF02C0B0E0B3
:100D0000A0E00E947507A50194010E944B07420EC6
:100D1000531E641E751EB2018FEF91E00E944802BF
:100D200060914F01709150016536710514F064E6D1
:100D300070E077FF02C070E060E023E0660F771F8D
:100D40002A95E1F7645B7B4F8CEF91E00E944802AB
:100D500060914D0170914E016536710514F064E6A5
:100D600070E077FF02C070E060E083E0660F771FFD
:100D70008A95E1F7645B7B4F89EF91E00E9448021E
:100D80000E9416016B017C0192E3492E512C612CCB
:100D9000712C0E9416016C197D098E099F09683E0D
:100DA000734081059105A8F381E0481A5108610854
:100DB0007108E8EECE0EE3E0DE1EE11CF11C4114EA
:100DC00051046104710429F72114310409F4A4CEFB
:100DD0000E94A501882309F49FCE0E9400009CCEAA
:100DE000F80181938F012196CC30D10509F0A0CE76
:100DF000DCCEFC0188279927E89421912032E9F381
:100E0000293010F02E30C8F32B3241F02D3239F456
:100E1000689404C00E944307820F911D21912053C2
:100E20002A30C0F31EF4909581959F4F089542E0BB
:100E300052E00E941C070895FA01A191B081009729
:100E400019F41097E1F0CD01DC01CD010D900020E7
:100E500011F4C00113C0FB012191222319F02015C8
:100E6000D9F7F3CFFB012191201519F41E921196A9
:100E700006C02223C1F70D900020A1F7D001FA018E
:100E8000A193B08308957AE0979F902D879F802D3E
:100E9000910D11240895052E97FB1EF400940E94D5
:100EA000620757FD07D00E947D0707FC03D04EF470
:100EB0000C94620750954095309521953F4F4F4FC8
:100EC0005F4F089590958095709561957F4F8F4FF6
:100ED0009F4F08950E949F07A59F900DB49F900D6E
:100EE000A49F800D911D11240895B7FF0C946A07EB
:100EF0000E946A07821B930B0895A1E21A2EAA1B77
:100F0000BB1BFD010DC0AA1FBB1FEE1FFF1FA217B9
:100F1000B307E407F50720F0A21BB30BE40BF50BB6
:100F2000661F771F881F991F1A9469F7609570953F
:100F3000809590959B01AC01BD01CF010895A29FC2
:100F4000B001B39FC001A39F700D811D1124911D9D
:100F5000B29F700D811D1124911D0895991B79E098
:100F600004C0991F961708F0961B881F7A95C9F739
:100F700080950895EE0FFF1F0590F491E02D0994E0
:040F8000F894FFCF13
:100F840000000000DB013B016801280299017701A0
:0A0F94008B013A0023000D0A000053
:00000001FF
