:100000000C945D000C9485000C9485000C94850084
:100010000C9485000C9485000C9485000C9485004C
:100020000C9485000C9485000C9485000C94EF03CF
:100030000C9485000C9485000C9485000C9485002C
:100040000C944D030C9485000C94BD030C94970301
:100050000C9485000C9485000C9485000C9485000C
:100060000C9485000C9485000000000024002700FB
:100070002A0000000000250028002B0004040404CE
:100080000404040402020202020203030303030342
:10009000010204081020408001020408102001021F
:1000A00004081020000000080002010000030407FB
:1000B0000000000000000000C60411241FBECFEFA6
:1000C000D8E0DEBFCDBF11E0A0E0B1E0ECEBFFE097
:1000D00002C005900D92AA31B107D9F722E0AAE13A
:1000E000B1E001C01D92A630B207E1F710E0CDE506
:1000F000D0E004C02197FE010E94D607CC35D1077D
:10010000C9F70E94FE040C94DC070C94000090E0F8
:10011000FC01EC55FF4F2491FC01E057FF4F349157
:10012000FC01E458FF4FE491EE23C9F0222339F09B
:10013000233001F1A8F4213019F1223029F1F0E047
:10014000EE0FFF1FEE58FF4FA591B4918FB7F894B3
:10015000EC91611126C030953E233C938FBF0895EA
:100160002730A9F02830C9F0243049F78091800069
:100170008F7D03C0809180008F7780938000DFCFD8
:1001800084B58F7784BDDBCF84B58F7DFBCF809125
:10019000B0008F778093B000D2CF8091B0008F7D78
:1001A000F9CF3E2BDACFCF93DF9390E0FC01E057FD
:1001B000FF4F249184589F4FFC0184918823D1F0F4
:1001C00090E0880F991FFC01E859FF4FA591B49169
:1001D000FC01EE58FF4FC591D49161110EC09FB73D
:1001E000F8948C91E22FE0958E238C932881E22362
:1001F000E8839FBFDF91CF9108958FB7F894EC917A
:10020000E22BEC938FBFF6CF8E50806480937C00FE
:1002100080917A00806480937A0080917A0086FDD4
:10022000FCCF809178009091790008953FB7F894C1
:1002300080915A0190915B01A0915C01B0915D01A8
:1002400026B5A89B05C02F3F19F00196A11DB11D31
:100250003FBFBA2FA92F982F8827BC01CD01620F6D
:10026000711D811D911D42E0660F771F881F991F28
:100270004A95D1F70895AF92BF92CF92DF92EF9255
:10028000FF920F931F93CF93DF936C017B018B0140
:10029000040F151FEB015E01AE18BF08C017D10790
:1002A00059F06991D601ED91FC910190F081E02D1A
:1002B000C6010995892B79F7C501DF91CF911F916F
:1002C0000F91FF90EF90DF90CF90BF90AF90089587
:1002D000FC01538D448D252F30E0842F90E0821B4C
:1002E000930B541710F0CF96089501970895FC01D1
:1002F000918D828D981761F0A28DAE0FBF2FB11D29
:100300005D968C91928D9F5F9F73928F90E0089580
:100310008FEF9FEF0895FC01918D828D981731F03A
:10032000828DE80FF11D858D90E008958FEF9FEF8E
:100330000895FC01918D228D892F90E0805C9F4F64
:10034000821B91098F73992708958EE591E00E9491
:10035000990121E0892B09F420E0822F089580E0A3
:1003600090E0892B29F00E94A50181110C940000D6
:100370000895FC01A48DA80FB92FB11DA35ABF4F3A
:100380002C91848D90E001968F739927848FA68994
:10039000B7892C93A089B1898C91837080648C93E8
:1003A000938D848D981306C00288F389E02D808197
:1003B0008F7D80830895EF92FF920F931F93CF93C9
:1003C000DF93EC0181E0888F9B8D8C8D98131AC090
:1003D000E889F989808185FF15C09FB7F894EE8977
:1003E000FF896083E889F9898081837080648083D4
:1003F0009FBF81E090E0DF91CF911F910F91FF901F
:10040000EF900895F62E0B8D10E00F5F1F4F0F73C6
:100410001127E02E8C8D8E110CC00FB607FCFACF81
:10042000E889F989808185FFF5CFCE010E94B90165
:10043000F1CFEB8DEC0FFD2FF11DE35AFF4FF08252
:100440009FB7F8940B8FEA89FB8980818062CFCFB8
:10045000CF93DF93EC01888D8823B9F0AA89BB89FB
:10046000E889F9898C9185FD03C0808186FD0DC0E6
:100470000FB607FCF7CF8C9185FFF2CF808185FF07
:10048000EDCFCE010E94B901E9CFDF91CF91089560
:10049000DC01EC91EC3090F511968C91119728E8E5
:1004A00030E0281B310987FD3395220F331F220FBF
:1004B000331F6217730784F012968C9128E532E09F
:1004C000281B310987FD3395220F331F220F331F5D
:1004D000621773070CF49B0122503109220F331F5E
:1004E0004FB7F8948E2F90E0FC01EE0FFF1FE80F3E
:1004F000F91FE45EFE4F328321834FBF08951F939F
:10050000CF93DF93EC01162F88818C3008F04EC01A
:1005100061E0812F0E94D3008881282F30E0F9010B
:10052000EE0FFF1FE20FF31FE45EFE4F1F736081AB
:10053000607C612B608319821A822CE0622F0E94FA
:10054000CA07829FB001112430E020E0AB01420FC6
:10055000531FFA01EE0FFF1FE40FF51FE45EFE4F7D
:10056000908196FD16C02F5F3F4F2C30310571F7FB
:1005700081110FC01092800082E080938100109260
:10058000850010928400B19A80916F008260809300
:100590006F00E8818E2F90E0FC01EE0FFF1FE80F47
:1005A000F91FE45EFE4F8081806480838881DF9143
:1005B000CF911F910895FC0101900020E9F7319738
:1005C000AF01481B590BBC018EE591E00C943B0137
:1005D0008F929F92AF92BF920F931F93CF93DF930F
:1005E000CDB7DEB7A1970FB6F894DEBF0FBECDBF73
:1005F00019A2423008F44AE08E010F5D1F4F842E8D
:10060000912CB12CA12CA50194010E949907E62FF1
:10061000B901CA01EA30F4F4E05DD801EE938D012E
:10062000232B242B252B79F790E080E0109719F0ED
:10063000CD010E94DB02A1960FB6F894DEBF0FBE7B
:10064000CDBFDF91CF911F910F91BF90AF909F9041
:100650008F900895E95CE1CFCF92DF92EF92FF9205
:10066000CF93DF936B017C016DE28EE591E00E94F8
:10067000DB01EC0166277727CB016C197D098E0918
:100680009F094AE00E94E8028C0F9D1FDF91CF91E5
:10069000FF90EF90DF90CF9008951F920F920FB6CA
:1006A0000F9211242F933F938F939F93AF93BF93F8
:1006B0008091560190915701A0915801B091590134
:1006C0003091550123E0230F2D3758F50196A11DD8
:1006D000B11D209355018093560190935701A0932B
:1006E0005801B093590180915A0190915B01A091FA
:1006F0005C01B0915D010196A11DB11D80935A016D
:1007000090935B01A0935C01B0935D01BF91AF91A9
:100710009F918F913F912F910F900FBE0F901F903F
:10072000189526E8230F0296A11DB11DD2CF1F9266
:100730000F920FB60F9211242F933F934F935F9315
:100740006F937F938F939F93AF93BF93EF93FF9399
:100750008EE591E00E94B901FF91EF91BF91AF91B9
:100760009F918F917F916F915F914F913F912F91C9
:100770000F900FBE0F901F9018951F920F920FB6FB
:100780000F9211242F938F939F93EF93FF93E091F8
:100790006E01F0916F018081E0917401F09175011B
:1007A00082FD1BC09081809177018F5F8F732091B4
:1007B0007801821741F0E0917701F0E0E25AFE4FB4
:1007C000958F80937701FF91EF919F918F912F915A
:1007D0000F900FBE0F901F9018958081F4CF1F923D
:1007E0000F920FB60F9211242F933F934F935F9365
:1007F0006F937F938F939F93AF93BF93CF93DF9329
:10080000EF93FF9380911A01C0911B01D0E087FF05
:1008100024C0109285001092840080911A018F5F8D
:1008200080931A0180911A01082E000C990B8C17E5
:100830009D0724F480911A018C30C4F180918400CA
:1008400090918500049680349C4908F47AC0809188
:10085000840090918500049676C080911A01082E3C
:10086000000C990B8C179D07C4F6E0911A018E2F8E
:10087000EE0F990BFC01EE0FFF1FE80FF91FE45E6E
:10088000FE4F808186FFC9CFE0911A018E2FEE0FB7
:10089000990BFC01EE0FFF1FE80FF91FE45EFE4FFE
:1008A000808160E08F730E948700B7CF2091840021
:1008B00030918500E0911A018E2FEE0F990BFC010B
:1008C000EE0FFF1FE80FF91FE45EFE4F818192815A
:1008D000820F931F9093890080938800E0911A0102
:1008E0008E2FEE0F990BFC01EE0FFF1FE80FF91F83
:1008F000E45EFE4F808186FF11C0E0911A018E2FC9
:10090000EE0F990BFC01EE0FFF1FE80FF91FE45EDD
:10091000FE4F808161E08F730E948700FF91EF910D
:10092000DF91CF91BF91AF919F918F917F916F9107
:100930005F914F913F912F910F900FBE0F901F909D
:10094000189580E49CE990938900809388008FEF4C
:1009500080931A01E3CFFC0190911B019C3098F425
:1009600081E0890F80931B019083892F90E0FC0127
:10097000EE0FFF1FE80FF91FE45EFE4F88EB9BE0D0
:100980009283818308958FEF80830895EEE5F1E0EF
:100990001382128288EE93E0A0E0B0E08483958316
:1009A000A683B78384E091E09183808385EC90E017
:1009B0009587848784EC90E09787868780EC90E029
:1009C000918B808B81EC90E0938B828B82EC90E01A
:1009D000958B848B86EC90E0978B868B118E128E94
:1009E000138E148E81E092E00E94AB048EEF91E0B2
:1009F0000E94AB048BEF91E00C94AB04789484B527
:100A0000826084BD84B5816084BD85B5826085BD0A
:100A100085B5816085BD80916E00816080936E0098
:100A2000109281008091810082608093810080918A
:100A3000810081608093810080918000816080933B
:100A400080008091B10084608093B1008091B000FB
:100A500081608093B00080917A00846080937A00F6
:100A600080917A00826080937A0080917A00816020
:100A700080937A0080917A00806880937A00109247
:100A8000C100109252011092510110925001109227
:100A90004F0110924E0110924D0161E08AE00E94D8
:100AA000D30061E089E00E94D30060E08EE00E9404
:100AB000D30060E081E10E94D30069E070E08EEF36
:100AC00091E00E947F026AE070E08BEF91E00E946B
:100AD0007F0263E070E081E092E00E947F02E0919B
:100AE0006E01F0916F0182E08083E0916A01F091E4
:100AF0006B011082E0916C01F0916D0180E18083C7
:100B000010927601E0917201F091730186E080838A
:100B1000E0917001F0917101808180618083E091AA
:100B20007001F0917101808188608083E091700193
:100B3000F0917101808180688083E0917001F09173
:100B4000710180818F7D808364EB862E912CA12C96
:100B5000B12C70E0272E70E0372E8EE591E00E94D8
:100B60009901181619060CF072C000E411E0D0E0EB
:100B7000C0E02FB7F8948091560190915701A09151
:100B80005801B09159012FBF80936601909367017E
:100B9000A0936801B09369018EE591E00E9477010E
:100BA00097FF3AC12FB7F894809156019091570161
:100BB000A0915801B09159012FBF40916601509109
:100BC00067016091680170916901841B950BA60B08
:100BD000B70B409162015091630160916401709183
:100BE000650184179507A607B707B0F2C05CDE4F12
:100BF000188262E171E080E491E00E943307D0E066
:100C0000C0E0009721F1209771F40E94150790939E
:100C1000520180935101219662E171E090E080E001
:100C20000E943307EECFC130D10539F40E94150779
:100C30009093500180934F01EECFC230D10559F708
:100C40000E94150790934E0180934D01E4CF80914F
:100C50005301909154010A9744F181E10E940401EB
:100C60008C018EE00E940401EC0184E191E00E947D
:100C7000DB02B801110F880B990B97FFC5C00E94CA
:100C80002C0382E191E00E94DB02BE01DD0F880BA4
:100C9000990B97FFBDC00E942C0386E191E00E9452
:100CA000DB021092540110925301809153019091F4
:100CB0005401019690935401809353016091510126
:100CC00070915201603222E07207D4F580910202E5
:100CD00038E8432E512C481A510887FD5394440C90
:100CE000551C440C551C052C000C66087708809197
:100CF000030228E532E0281B310987FD3395220FD6
:100D0000331F220F331F032E000C440B550B2419E5
:100D1000350946095709DB01653B710514F0A4EB61
:100D2000B0E0B7FF02C0B0E0A0E00E949107A501CB
:100D300094010E946707420E531E641E751EB20185
:100D400081E092E00E94480260914F017091500151
:100D50006536710514F064E670E077FF02C070E05C
:100D600060E023E0660F771F2A95E1F7645B7B4F15
:100D70008EEF91E00E94480260914D0170914E010A
:100D80006536710514F064E670E077FF02C070E02C
:100D900060E083E0660F771F8A95E1F7645B7B4F25
:100DA0008BEF91E00E9448020E9416016B017C01CA
:100DB0009AE0492E512C612C712C0E9416016C195D
:100DC0007D098E099F09683E734081059105A8F34E
:100DD00081E0481A510861087108E8EECE0EE3E0A0
:100DE000DE1EE11CF11C411451046104710429F759
:100DF0002114310409F4B1CE0E94A501882309F41D
:100E0000ACCE0E940000A9CE4AE00E94E80239CF91
:100E10004AE00E94E80241CFF80181938F012196B8
:100E2000CC30D10509F0A5CEE1CEFC018827992769
:100E3000E89421912032E9F3293010F02E30C8F3E4
:100E40002B3241F02D3239F4689404C00E945F07C0
:100E5000820F911D219120532A30C0F31EF49095EA
:100E600081959F4F089544E052E00E94380708950D
:100E7000FA01A191B081009719F41097E1F0CD012A
:100E8000DC01CD010D90002011F4C00113C0FB0165
:100E90002191222319F02015D9F7F3CFFB012191DD
:100EA000201519F41E92119606C02223C1F70D9049
:100EB0000020A1F7D001FA01A193B08308957AE050
:100EC000979F902D879F802D910D11240895052EB9
:100ED00097FB1EF400940E947E0757FD07D00E94E6
:100EE000990707FC03D04EF40C947E07509540956B
:100EF000309521953F4F4F4F5F4F089590958095C6
:100F0000709561957F4F8F4F9F4F08950E94BB074B
:100F1000A59F900DB49F900DA49F800D911D11244D
:100F20000895B7FF0C9486070E948607821B930BD7
:100F30000895A1E21A2EAA1BBB1BFD010DC0AA1F1A
:100F4000BB1FEE1FFF1FA217B307E407F50720F032
:100F5000A21BB30BE40BF50B661F771F881F991FAD
:100F60001A9469F760957095809590959B01AC01F6
:100F7000BD01CF010895A29FB001B39FC001A39FFF
:100F8000700D811D1124911DB29F700D811D1124C2
:100F9000911D0895991B79E004C0991F961708F0D8
:100FA000961B881F7A95C9F780950895EE0FFF1F4D
:0C0FB0000590F491E02D0994F894FFCF17
:100FBC0000000000DB013B01680128029901770168
:0A0FCC008B013A0023000D0A00001B
:00000001FF
